{
  "_format": "hh-sol-artifact-1",
  "contractName": "DappFundX",
  "sourceName": "contracts/DappFundX.sol",
  "abi": [
    {
      "inputs": [
        {
          "internalType": "uint256",
          "name": "_charityTax",
          "type": "uint256"
        }
      ],
      "stateMutability": "nonpayable",
      "type": "constructor"
    },
    {
      "anonymous": false,
      "inputs": [
        {
          "indexed": true,
          "internalType": "address",
          "name": "previousOwner",
          "type": "address"
        },
        {
          "indexed": true,
          "internalType": "address",
          "name": "newOwner",
          "type": "address"
        }
      ],
      "name": "OwnershipTransferred",
      "type": "event"
    },
    {
      "anonymous": false,
      "inputs": [
        {
          "indexed": true,
          "internalType": "bytes32",
          "name": "role",
          "type": "bytes32"
        },
        {
          "indexed": true,
          "internalType": "bytes32",
          "name": "previousAdminRole",
          "type": "bytes32"
        },
        {
          "indexed": true,
          "internalType": "bytes32",
          "name": "newAdminRole",
          "type": "bytes32"
        }
      ],
      "name": "RoleAdminChanged",
      "type": "event"
    },
    {
      "anonymous": false,
      "inputs": [
        {
          "indexed": true,
          "internalType": "bytes32",
          "name": "role",
          "type": "bytes32"
        },
        {
          "indexed": true,
          "internalType": "address",
          "name": "account",
          "type": "address"
        },
        {
          "indexed": true,
          "internalType": "address",
          "name": "sender",
          "type": "address"
        }
      ],
      "name": "RoleGranted",
      "type": "event"
    },
    {
      "anonymous": false,
      "inputs": [
        {
          "indexed": true,
          "internalType": "bytes32",
          "name": "role",
          "type": "bytes32"
        },
        {
          "indexed": true,
          "internalType": "address",
          "name": "account",
          "type": "address"
        },
        {
          "indexed": true,
          "internalType": "address",
          "name": "sender",
          "type": "address"
        }
      ],
      "name": "RoleRevoked",
      "type": "event"
    },
    {
      "inputs": [],
      "name": "DEFAULT_ADMIN_ROLE",
      "outputs": [
        {
          "internalType": "bytes32",
          "name": "",
          "type": "bytes32"
        }
      ],
      "stateMutability": "view",
      "type": "function"
    },
    {
      "inputs": [
        {
          "internalType": "uint256",
          "name": "_taxPct",
          "type": "uint256"
        }
      ],
      "name": "changeTax",
      "outputs": [],
      "stateMutability": "nonpayable",
      "type": "function"
    },
    {
      "inputs": [
        {
          "internalType": "uint256",
          "name": "",
          "type": "uint256"
        }
      ],
      "name": "charityExist",
      "outputs": [
        {
          "internalType": "bool",
          "name": "",
          "type": "bool"
        }
      ],
      "stateMutability": "view",
      "type": "function"
    },
    {
      "inputs": [],
      "name": "charityTax",
      "outputs": [
        {
          "internalType": "uint256",
          "name": "",
          "type": "uint256"
        }
      ],
      "stateMutability": "view",
      "type": "function"
    },
    {
      "inputs": [
        {
          "internalType": "string",
          "name": "name",
          "type": "string"
        },
        {
          "internalType": "string",
          "name": "fullname",
          "type": "string"
        },
        {
          "internalType": "string",
          "name": "profile",
          "type": "string"
        },
        {
          "internalType": "string",
          "name": "description",
          "type": "string"
        },
        {
          "internalType": "string",
          "name": "image",
          "type": "string"
        },
        {
          "internalType": "uint256",
          "name": "amount",
          "type": "uint256"
        }
      ],
      "name": "createCharity",
      "outputs": [],
      "stateMutability": "nonpayable",
      "type": "function"
    },
    {
      "inputs": [
        {
          "internalType": "uint256",
          "name": "id",
          "type": "uint256"
        }
      ],
      "name": "deleteCharity",
      "outputs": [],
      "stateMutability": "nonpayable",
      "type": "function"
    },
    {
      "inputs": [
        {
          "internalType": "uint256",
          "name": "id",
          "type": "uint256"
        },
        {
          "internalType": "string",
          "name": "fullname",
          "type": "string"
        },
        {
          "internalType": "string",
          "name": "comment",
          "type": "string"
        }
      ],
      "name": "donate",
      "outputs": [],
      "stateMutability": "payable",
      "type": "function"
    },
    {
      "inputs": [],
      "name": "getCharities",
      "outputs": [
        {
          "components": [
            {
              "internalType": "uint256",
              "name": "id",
              "type": "uint256"
            },
            {
              "internalType": "address",
              "name": "owner",
              "type": "address"
            },
            {
              "internalType": "string",
              "name": "name",
              "type": "string"
            },
            {
              "internalType": "string",
              "name": "fullname",
              "type": "string"
            },
            {
              "internalType": "string",
              "name": "description",
              "type": "string"
            },
            {
              "internalType": "string",
              "name": "image",
              "type": "string"
            },
            {
              "internalType": "string",
              "name": "profile",
              "type": "string"
            },
            {
              "internalType": "uint256",
              "name": "amount",
              "type": "uint256"
            },
            {
              "internalType": "uint256",
              "name": "donations",
              "type": "uint256"
            },
            {
              "internalType": "uint256",
              "name": "raised",
              "type": "uint256"
            },
            {
              "internalType": "uint256",
              "name": "timestamp",
              "type": "uint256"
            },
            {
              "internalType": "bool",
              "name": "deleted",
              "type": "bool"
            },
            {
              "internalType": "bool",
              "name": "banned",
              "type": "bool"
            }
          ],
          "internalType": "struct DappFundX.CharityStruct[]",
          "name": "Charities",
          "type": "tuple[]"
        }
      ],
      "stateMutability": "view",
      "type": "function"
    },
    {
      "inputs": [
        {
          "internalType": "uint256",
          "name": "id",
          "type": "uint256"
        }
      ],
      "name": "getCharity",
      "outputs": [
        {
          "components": [
            {
              "internalType": "uint256",
              "name": "id",
              "type": "uint256"
            },
            {
              "internalType": "address",
              "name": "owner",
              "type": "address"
            },
            {
              "internalType": "string",
              "name": "name",
              "type": "string"
            },
            {
              "internalType": "string",
              "name": "fullname",
              "type": "string"
            },
            {
              "internalType": "string",
              "name": "description",
              "type": "string"
            },
            {
              "internalType": "string",
              "name": "image",
              "type": "string"
            },
            {
              "internalType": "string",
              "name": "profile",
              "type": "string"
            },
            {
              "internalType": "uint256",
              "name": "amount",
              "type": "uint256"
            },
            {
              "internalType": "uint256",
              "name": "donations",
              "type": "uint256"
            },
            {
              "internalType": "uint256",
              "name": "raised",
              "type": "uint256"
            },
            {
              "internalType": "uint256",
              "name": "timestamp",
              "type": "uint256"
            },
            {
              "internalType": "bool",
              "name": "deleted",
              "type": "bool"
            },
            {
              "internalType": "bool",
              "name": "banned",
              "type": "bool"
            }
          ],
          "internalType": "struct DappFundX.CharityStruct",
          "name": "",
          "type": "tuple"
        }
      ],
      "stateMutability": "view",
      "type": "function"
    },
    {
      "inputs": [],
      "name": "getMyCharities",
      "outputs": [
        {
          "components": [
            {
              "internalType": "uint256",
              "name": "id",
              "type": "uint256"
            },
            {
              "internalType": "address",
              "name": "owner",
              "type": "address"
            },
            {
              "internalType": "string",
              "name": "name",
              "type": "string"
            },
            {
              "internalType": "string",
              "name": "fullname",
              "type": "string"
            },
            {
              "internalType": "string",
              "name": "description",
              "type": "string"
            },
            {
              "internalType": "string",
              "name": "image",
              "type": "string"
            },
            {
              "internalType": "string",
              "name": "profile",
              "type": "string"
            },
            {
              "internalType": "uint256",
              "name": "amount",
              "type": "uint256"
            },
            {
              "internalType": "uint256",
              "name": "donations",
              "type": "uint256"
            },
            {
              "internalType": "uint256",
              "name": "raised",
              "type": "uint256"
            },
            {
              "internalType": "uint256",
              "name": "timestamp",
              "type": "uint256"
            },
            {
              "internalType": "bool",
              "name": "deleted",
              "type": "bool"
            },
            {
              "internalType": "bool",
              "name": "banned",
              "type": "bool"
            }
          ],
          "internalType": "struct DappFundX.CharityStruct[]",
          "name": "Charities",
          "type": "tuple[]"
        }
      ],
      "stateMutability": "view",
      "type": "function"
    },
    {
      "inputs": [
        {
          "internalType": "bytes32",
          "name": "role",
          "type": "bytes32"
        }
      ],
      "name": "getRoleAdmin",
      "outputs": [
        {
          "internalType": "bytes32",
          "name": "",
          "type": "bytes32"
        }
      ],
      "stateMutability": "view",
      "type": "function"
    },
    {
      "inputs": [
        {
          "internalType": "uint256",
          "name": "id",
          "type": "uint256"
        }
      ],
      "name": "getSupporters",
      "outputs": [
        {
          "components": [
            {
              "internalType": "uint256",
              "name": "id",
              "type": "uint256"
            },
            {
              "internalType": "uint256",
              "name": "cid",
              "type": "uint256"
            },
            {
              "internalType": "string",
              "name": "fullname",
              "type": "string"
            },
            {
              "internalType": "uint256",
              "name": "amount",
              "type": "uint256"
            },
            {
              "internalType": "uint256",
              "name": "timestamp",
              "type": "uint256"
            },
            {
              "internalType": "string",
              "name": "comment",
              "type": "string"
            },
            {
              "internalType": "address",
              "name": "supporter",
              "type": "address"
            }
          ],
          "internalType": "struct DappFundX.SupportStruct[]",
          "name": "",
          "type": "tuple[]"
        }
      ],
      "stateMutability": "view",
      "type": "function"
    },
    {
      "inputs": [
        {
          "internalType": "bytes32",
          "name": "role",
          "type": "bytes32"
        },
        {
          "internalType": "address",
          "name": "account",
          "type": "address"
        }
      ],
      "name": "grantRole",
      "outputs": [],
      "stateMutability": "nonpayable",
      "type": "function"
    },
    {
      "inputs": [
        {
          "internalType": "bytes32",
          "name": "role",
          "type": "bytes32"
        },
        {
          "internalType": "address",
          "name": "account",
          "type": "address"
        }
      ],
      "name": "hasRole",
      "outputs": [
        {
          "internalType": "bool",
          "name": "",
          "type": "bool"
        }
      ],
      "stateMutability": "view",
      "type": "function"
    },
    {
      "inputs": [],
      "name": "owner",
      "outputs": [
        {
          "internalType": "address",
          "name": "",
          "type": "address"
        }
      ],
      "stateMutability": "view",
      "type": "function"
    },
    {
      "inputs": [],
      "name": "renounceOwnership",
      "outputs": [],
      "stateMutability": "nonpayable",
      "type": "function"
    },
    {
      "inputs": [
        {
          "internalType": "bytes32",
          "name": "role",
          "type": "bytes32"
        },
        {
          "internalType": "address",
          "name": "account",
          "type": "address"
        }
      ],
      "name": "renounceRole",
      "outputs": [],
      "stateMutability": "nonpayable",
      "type": "function"
    },
    {
      "inputs": [
        {
          "internalType": "bytes32",
          "name": "role",
          "type": "bytes32"
        },
        {
          "internalType": "address",
          "name": "account",
          "type": "address"
        }
      ],
      "name": "revokeRole",
      "outputs": [],
      "stateMutability": "nonpayable",
      "type": "function"
    },
    {
      "inputs": [
        {
          "internalType": "bytes4",
          "name": "interfaceId",
          "type": "bytes4"
        }
      ],
      "name": "supportsInterface",
      "outputs": [
        {
          "internalType": "bool",
          "name": "",
          "type": "bool"
        }
      ],
      "stateMutability": "view",
      "type": "function"
    },
    {
      "inputs": [
        {
          "internalType": "uint256",
          "name": "id",
          "type": "uint256"
        }
      ],
      "name": "toggleBan",
      "outputs": [],
      "stateMutability": "nonpayable",
      "type": "function"
    },
    {
      "inputs": [
        {
          "internalType": "address",
          "name": "newOwner",
          "type": "address"
        }
      ],
      "name": "transferOwnership",
      "outputs": [],
      "stateMutability": "nonpayable",
      "type": "function"
    },
    {
      "inputs": [
        {
          "internalType": "uint256",
          "name": "id",
          "type": "uint256"
        },
        {
          "internalType": "string",
          "name": "name",
          "type": "string"
        },
        {
          "internalType": "string",
          "name": "fullname",
          "type": "string"
        },
        {
          "internalType": "string",
          "name": "profile",
          "type": "string"
        },
        {
          "internalType": "string",
          "name": "description",
          "type": "string"
        },
        {
          "internalType": "string",
          "name": "image",
          "type": "string"
        },
        {
          "internalType": "uint256",
          "name": "amount",
          "type": "uint256"
        }
      ],
      "name": "updateCharity",
      "outputs": [],
      "stateMutability": "nonpayable",
      "type": "function"
    }
  ],
  "bytecode": "0x60806040523480156200001157600080fd5b5060405162002e1a38038062002e1a833981016040819052620000349162000098565b6200003f3362000048565b600455620000b2565b600080546001600160a01b038381166001600160a01b0319831681178455604051919092169283917f8be0079c531659141344cd1fd0a4f28419497f9722a3daafe3b4186f6b6457e09190a35050565b600060208284031215620000ab57600080fd5b5051919050565b612d5880620000c26000396000f3fe6080604052600436106101355760003560e01c80638da5cb5b116100ab578063cdb532b91161006f578063cdb532b91461036c578063d547741f1461038c578063ed572471146103ac578063f2ccf839146103cc578063f2fde38b146103df578063fd67db81146103ff57600080fd5b80638da5cb5b146102bf57806391d14854146102e7578063a217fddf14610307578063ac3238c11461031c578063b48c06dd1461033c57600080fd5b80633d784783116100fd5780633d784783146102105780633e45c8af1461022657806348112c6f146102465780634f63829c146102685780635866192914610295578063715018a6146102aa57600080fd5b806301ffc9a71461013a578063063165a31461016f578063248a9ca3146101915780632f2ff15d146101d057806336568abe146101f0575b600080fd5b34801561014657600080fd5b5061015a610155366004612480565b61042c565b60405190151581526020015b60405180910390f35b34801561017b57600080fd5b5061018f61018a36600461254d565b610463565b005b34801561019d57600080fd5b506101c26101ac366004612627565b6000908152600160208190526040909120015490565b604051908152602001610166565b3480156101dc57600080fd5b5061018f6101eb36600461265c565b6107a1565b3480156101fc57600080fd5b5061018f61020b36600461265c565b6107cc565b34801561021c57600080fd5b506101c260045481565b34801561023257600080fd5b5061018f610241366004612627565b61084a565b34801561025257600080fd5b5061025b6108b4565b60405161016691906127cc565b34801561027457600080fd5b50610288610283366004612627565b610da6565b604051610166919061282e565b3480156102a157600080fd5b5061025b610f7a565b3480156102b657600080fd5b5061018f61146a565b3480156102cb57600080fd5b506000546040516001600160a01b039091168152602001610166565b3480156102f357600080fd5b5061015a61030236600461265c565b61147e565b34801561031357600080fd5b506101c2600081565b34801561032857600080fd5b5061018f610337366004612627565b6114a9565b34801561034857600080fd5b5061015a610357366004612627565b60076020526000908152604090205460ff1681565b34801561037857600080fd5b5061018f610387366004612627565b61150b565b34801561039857600080fd5b5061018f6103a736600461265c565b6115b6565b3480156103b857600080fd5b5061018f6103c73660046128f4565b6115dc565b61018f6103da3660046129d9565b6118dd565b3480156103eb57600080fd5b5061018f6103fa366004612a46565b611c14565b34801561040b57600080fd5b5061041f61041a366004612627565b611c8d565b6040516101669190612a61565b60006001600160e01b03198216637965db0b60e01b148061045d57506301ffc9a760e01b6001600160e01b03198316145b92915050565b600081116104b85760405162461bcd60e51b815260206004820152601d60248201527f416d6f756e74206d7573742062652067726561746572207468616e203000000060448201526064015b60405180910390fd5b60008651116104fc5760405162461bcd60e51b815260206004820152601060248201526f13985b59481a5cc81c995c5d5a5c995960821b60448201526064016104af565b60008551116105445760405162461bcd60e51b8152602060048201526014602482015273119d5b1b1b985b59481a5cc81c995c5d5a5c995960621b60448201526064016104af565b600084511161058b5760405162461bcd60e51b8152602060048201526013602482015272141c9bd99a5b19481a5cc81c995c5d5a5c9959606a1b60448201526064016104af565b60008351116105d65760405162461bcd60e51b815260206004820152601760248201527611195cd8dc9a5c1d1a5bdb881a5cc81c995c5d5a5c9959604a1b60448201526064016104af565b600082511161061b5760405162461bcd60e51b8152602060048201526011602482015270125b5859d9481a5cc81c995c5d5a5c9959607a1b60448201526064016104af565b610629600280546001019055565b61063161240b565b600254815233602082015260408101879052606081018690526080810184905260a0810183905260c0810185905260e0810182905261066e611ff8565b610140820152805160009081526005602090815260409182902083518155908301516001820180546001600160a01b0319166001600160a01b039092169190911790559082015182919060028201906106c79082612af4565b50606082015160038201906106dc9082612af4565b50608082015160048201906106f19082612af4565b5060a082015160058201906107069082612af4565b5060c0820151600682019061071b9082612af4565b5060e08201516007828101919091556101008084015160088401556101208401516009840155610140840151600a840155610160840151600b90930180546101809095015161ffff1990951693151561ff00191693909317931515029290921790559051600090815260209190915260409020805460ff19166001179055505050505050565b600082815260016020819052604090912001546107bd81612017565b6107c78383612021565b505050565b6001600160a01b038116331461083c5760405162461bcd60e51b815260206004820152602f60248201527f416363657373436f6e74726f6c3a2063616e206f6e6c792072656e6f756e636560448201526e103937b632b9903337b91039b2b63360891b60648201526084016104af565b610846828261208c565b5050565b6108526120f3565b600081118015610863575060648111155b6108af5760405162461bcd60e51b815260206004820152601f60248201527f50657263656e74206d757374206265206265747765656e2030202d203130300060448201526064016104af565b600455565b6060600060015b6002548111610944576000818152600560205260409020600b015460ff161580156108fd57506000818152600560205260409020600b0154610100900460ff16155b801561091f575060008181526005602052604090206007810154600990910154105b15610932578161092e81612bca565b9250505b8061093c81612bca565b9150506108bb565b508067ffffffffffffffff81111561095e5761095e6124aa565b60405190808252806020026020018201604052801561099757816020015b61098461240b565b81526020019060019003908161097c5790505b509150600060015b6002548111610da0576000818152600560205260409020600b015460ff161580156109e157506000818152600560205260409020600b0154610100900460ff16155b8015610a03575060008181526005602052604090206007810154600990910154105b15610d8e5760008181526005602090815260409182902082516101a0810184528154815260018201546001600160a01b0316928101929092526002810180549293919291840191610a5390612a74565b80601f0160208091040260200160405190810160405280929190818152602001828054610a7f90612a74565b8015610acc5780601f10610aa157610100808354040283529160200191610acc565b820191906000526020600020905b815481529060010190602001808311610aaf57829003601f168201915b50505050508152602001600382018054610ae590612a74565b80601f0160208091040260200160405190810160405280929190818152602001828054610b1190612a74565b8015610b5e5780601f10610b3357610100808354040283529160200191610b5e565b820191906000526020600020905b815481529060010190602001808311610b4157829003601f168201915b50505050508152602001600482018054610b7790612a74565b80601f0160208091040260200160405190810160405280929190818152602001828054610ba390612a74565b8015610bf05780601f10610bc557610100808354040283529160200191610bf0565b820191906000526020600020905b815481529060010190602001808311610bd357829003601f168201915b50505050508152602001600582018054610c0990612a74565b80601f0160208091040260200160405190810160405280929190818152602001828054610c3590612a74565b8015610c825780601f10610c5757610100808354040283529160200191610c82565b820191906000526020600020905b815481529060010190602001808311610c6557829003601f168201915b50505050508152602001600682018054610c9b90612a74565b80601f0160208091040260200160405190810160405280929190818152602001828054610cc790612a74565b8015610d145780601f10610ce957610100808354040283529160200191610d14565b820191906000526020600020905b815481529060010190602001808311610cf757829003601f168201915b5050509183525050600782015460208201526008820154604082015260098201546060820152600a8201546080820152600b9091015460ff808216151560a084015261010090910416151560c0909101528483610d7081612bca565b945081518110610d8257610d82612be3565b60200260200101819052505b80610d9881612bca565b91505061099f565b50505090565b606060066000838152602001908152602001600020805480602002602001604051908101604052809291908181526020016000905b82821015610f6f57838290600052602060002090600702016040518060e00160405290816000820154815260200160018201548152602001600282018054610e2290612a74565b80601f0160208091040260200160405190810160405280929190818152602001828054610e4e90612a74565b8015610e9b5780601f10610e7057610100808354040283529160200191610e9b565b820191906000526020600020905b815481529060010190602001808311610e7e57829003601f168201915b505050505081526020016003820154815260200160048201548152602001600582018054610ec890612a74565b80601f0160208091040260200160405190810160405280929190818152602001828054610ef490612a74565b8015610f415780601f10610f1657610100808354040283529160200191610f41565b820191906000526020600020905b815481529060010190602001808311610f2457829003601f168201915b5050509183525050600691909101546001600160a01b03166020918201529082526001929092019101610ddb565b505050509050919050565b6060600060015b600254811161100c576000818152600560205260409020600b015460ff16158015610fc2575060008181526005602052604090206007810154600990910154105b8015610fe757506000818152600560205260409020600101546001600160a01b031633145b15610ffa5781610ff681612bca565b9250505b8061100481612bca565b915050610f81565b508067ffffffffffffffff811115611026576110266124aa565b60405190808252806020026020018201604052801561105f57816020015b61104c61240b565b8152602001906001900390816110445790505b509150600060015b6002548111610da0576000818152600560205260409020600b015460ff161580156110a8575060008181526005602052604090206007810154600990910154105b80156110cd57506000818152600560205260409020600101546001600160a01b031633145b156114585760008181526005602090815260409182902082516101a0810184528154815260018201546001600160a01b031692810192909252600281018054929391929184019161111d90612a74565b80601f016020809104026020016040519081016040528092919081815260200182805461114990612a74565b80156111965780601f1061116b57610100808354040283529160200191611196565b820191906000526020600020905b81548152906001019060200180831161117957829003601f168201915b505050505081526020016003820180546111af90612a74565b80601f01602080910402602001604051908101604052809291908181526020018280546111db90612a74565b80156112285780601f106111fd57610100808354040283529160200191611228565b820191906000526020600020905b81548152906001019060200180831161120b57829003601f168201915b5050505050815260200160048201805461124190612a74565b80601f016020809104026020016040519081016040528092919081815260200182805461126d90612a74565b80156112ba5780601f1061128f576101008083540402835291602001916112ba565b820191906000526020600020905b81548152906001019060200180831161129d57829003601f168201915b505050505081526020016005820180546112d390612a74565b80601f01602080910402602001604051908101604052809291908181526020018280546112ff90612a74565b801561134c5780601f106113215761010080835404028352916020019161134c565b820191906000526020600020905b81548152906001019060200180831161132f57829003601f168201915b5050505050815260200160068201805461136590612a74565b80601f016020809104026020016040519081016040528092919081815260200182805461139190612a74565b80156113de5780601f106113b3576101008083540402835291602001916113de565b820191906000526020600020905b8154815290600101906020018083116113c157829003601f168201915b5050509183525050600782015460208201526008820154604082015260098201546060820152600a8201546080820152600b9091015460ff808216151560a084015261010090910416151560c090910152848361143a81612bca565b94508151811061144c5761144c612be3565b60200260200101819052505b8061146281612bca565b915050611067565b6114726120f3565b61147c600061214d565b565b60009182526001602090815260408084206001600160a01b0393909316845291905290205460ff1690565b6114b16120f3565b60008181526007602052604090205460ff166114df5760405162461bcd60e51b81526004016104af90612bf9565b6000908152600560205260409020600b01805461ff001981166101009182900460ff1615909102179055565b60008181526007602052604090205460ff166115395760405162461bcd60e51b81526004016104af90612bf9565b6000818152600560205260409020600101546001600160a01b031633146115985760405162461bcd60e51b8152602060048201526013602482015272556e617574686f72697a656420456e7469747960681b60448201526064016104af565b6000908152600560205260409020600b01805460ff19166001179055565b600082815260016020819052604090912001546115d281612017565b6107c7838361208c565b60008781526007602052604090205460ff1661162e5760405162461bcd60e51b815260206004820152601160248201527010da185c9a5d1e481b9bdd08199bdd5b99607a1b60448201526064016104af565b6000878152600560205260409020600101546001600160a01b0316331461168d5760405162461bcd60e51b8152602060048201526013602482015272556e617574686f72697a656420456e7469747960681b60448201526064016104af565b600081116116dd5760405162461bcd60e51b815260206004820152601d60248201527f416d6f756e74206d7573742062652067726561746572207468616e203000000060448201526064016104af565b60008651116117215760405162461bcd60e51b815260206004820152601060248201526f13985b59481a5cc81c995c5d5a5c995960821b60448201526064016104af565b60008551116117695760405162461bcd60e51b8152602060048201526014602482015273119d5b1b1b985b59481a5cc81c995c5d5a5c995960621b60448201526064016104af565b60008451116117b05760405162461bcd60e51b8152602060048201526013602482015272141c9bd99a5b19481a5cc81c995c5d5a5c9959606a1b60448201526064016104af565b60008351116117fb5760405162461bcd60e51b815260206004820152601760248201527611195cd8dc9a5c1d1a5bdb881a5cc81c995c5d5a5c9959604a1b60448201526064016104af565b60008251116118405760405162461bcd60e51b8152602060048201526011602482015270125b5859d9481a5cc81c995c5d5a5c9959607a1b60448201526064016104af565b600087815260056020526040902060020161185b8782612af4565b5060008781526005602052604090206003016118778682612af4565b506000878152600560208190526040909120016118948382612af4565b506000878152600560205260409020600781018290556006016118b78582612af4565b5060008781526005602052604090206004016118d38482612af4565b5050505050505050565b60008381526007602052604090205460ff1661190b5760405162461bcd60e51b81526004016104af90612bf9565b6000838152600560205260409020600b0154610100900460ff16156119725760405162461bcd60e51b815260206004820152601d60248201527f436861726974792042616e6e65642c20636f6e746163742061646d696e00000060448201526064016104af565b600034116119c25760405162461bcd60e51b815260206004820152601760248201527f446f6e6174696f6e2063616e6e6f74206265207a65726f00000000000000000060448201526064016104af565b6000838152600560205260409020600781015460099091015410611a285760405162461bcd60e51b815260206004820152601860248201527f43686172697479206275646765742066756c66696c6c6564000000000000000060448201526064016104af565b611a36600380546001019055565b611a7f6040518060e0016040528060008152602001600081526020016060815260200160008152602001600081526020016060815260200160006001600160a01b031681525090565b600354815260208101849052604081018390523360c082015234606082015260a08101829052611aad611ff8565b6080820152600084815260066020908152604080832080546001818101835591855293839020855160079095020193845591840151918301919091558201518291906002820190611afe9082612af4565b50606082015160038201556080820151600482015560a08201516005820190611b279082612af4565b5060c09190910151600690910180546001600160a01b0319166001600160a01b0390921691909117905560008481526005602052604081206009018054349290611b72908490612c24565b90915550506000848152600560205260408120600801805460019290611b99908490612c24565b9091555050600454600090606490611bb19034612c37565b611bbb9190612c4e565b90506000611bc98234612c70565b600087815260056020526040902060010154909150611bf1906001600160a01b03168261219d565b611c0c611c066000546001600160a01b031690565b8361219d565b505050505050565b611c1c6120f3565b6001600160a01b038116611c815760405162461bcd60e51b815260206004820152602660248201527f4f776e61626c653a206e6577206f776e657220697320746865207a65726f206160448201526564647265737360d01b60648201526084016104af565b611c8a8161214d565b50565b611c9561240b565b60008281526005602090815260409182902082516101a0810184528154815260018201546001600160a01b0316928101929092526002810180549293919291840191611ce090612a74565b80601f0160208091040260200160405190810160405280929190818152602001828054611d0c90612a74565b8015611d595780601f10611d2e57610100808354040283529160200191611d59565b820191906000526020600020905b815481529060010190602001808311611d3c57829003601f168201915b50505050508152602001600382018054611d7290612a74565b80601f0160208091040260200160405190810160405280929190818152602001828054611d9e90612a74565b8015611deb5780601f10611dc057610100808354040283529160200191611deb565b820191906000526020600020905b815481529060010190602001808311611dce57829003601f168201915b50505050508152602001600482018054611e0490612a74565b80601f0160208091040260200160405190810160405280929190818152602001828054611e3090612a74565b8015611e7d5780601f10611e5257610100808354040283529160200191611e7d565b820191906000526020600020905b815481529060010190602001808311611e6057829003601f168201915b50505050508152602001600582018054611e9690612a74565b80601f0160208091040260200160405190810160405280929190818152602001828054611ec290612a74565b8015611f0f5780601f10611ee457610100808354040283529160200191611f0f565b820191906000526020600020905b815481529060010190602001808311611ef257829003601f168201915b50505050508152602001600682018054611f2890612a74565b80601f0160208091040260200160405190810160405280929190818152602001828054611f5490612a74565b8015611fa15780601f10611f7657610100808354040283529160200191611fa1565b820191906000526020600020905b815481529060010190602001808311611f8457829003601f168201915b5050509183525050600782015460208201526008820154604082015260098201546060820152600a8201546080820152600b9091015460ff808216151560a084015261010090910416151560c09091015292915050565b6000612006426103e8612c37565b612012906103e8612c24565b905090565b611c8a81336121fd565b61202b828261147e565b6108465760008281526001602081815260408084206001600160a01b0386168086529252808420805460ff19169093179092559051339285917f2f8788117e7eff1d82e926ec794901d17c78024a50270940304540a733656f0d9190a45050565b612096828261147e565b156108465760008281526001602090815260408083206001600160a01b0385168085529252808320805460ff1916905551339285917ff6391f5c32d9c69d2a47ea670b442974b53935d1edc7fd64eb21e047a839171b9190a45050565b6000546001600160a01b0316331461147c5760405162461bcd60e51b815260206004820181905260248201527f4f776e61626c653a2063616c6c6572206973206e6f7420746865206f776e657260448201526064016104af565b600080546001600160a01b038381166001600160a01b0319831681178455604051919092169283917f8be0079c531659141344cd1fd0a4f28419497f9722a3daafe3b4186f6b6457e09190a35050565b6000826001600160a01b03168260405160006040518083038185875af1925050503d80600081146121ea576040519150601f19603f3d011682016040523d82523d6000602084013e6121ef565b606091505b50509050806107c757600080fd5b612207828261147e565b6108465761221481612256565b61221f836020612268565b604051602001612230929190612c83565b60408051601f198184030181529082905262461bcd60e51b82526104af91600401612cf8565b606061045d6001600160a01b03831660145b60606000612277836002612c37565b612282906002612c24565b67ffffffffffffffff81111561229a5761229a6124aa565b6040519080825280601f01601f1916602001820160405280156122c4576020820181803683370190505b509050600360fc1b816000815181106122df576122df612be3565b60200101906001600160f81b031916908160001a905350600f60fb1b8160018151811061230e5761230e612be3565b60200101906001600160f81b031916908160001a9053506000612332846002612c37565b61233d906001612c24565b90505b60018111156123b5576f181899199a1a9b1b9c1cb0b131b232b360811b85600f166010811061237157612371612be3565b1a60f81b82828151811061238757612387612be3565b60200101906001600160f81b031916908160001a90535060049490941c936123ae81612d0b565b9050612340565b5083156124045760405162461bcd60e51b815260206004820181905260248201527f537472696e67733a20686578206c656e67746820696e73756666696369656e7460448201526064016104af565b9392505050565b604051806101a001604052806000815260200160006001600160a01b031681526020016060815260200160608152602001606081526020016060815260200160608152602001600081526020016000815260200160008152602001600081526020016000151581526020016000151581525090565b60006020828403121561249257600080fd5b81356001600160e01b03198116811461240457600080fd5b634e487b7160e01b600052604160045260246000fd5b600082601f8301126124d157600080fd5b813567ffffffffffffffff808211156124ec576124ec6124aa565b604051601f8301601f19908116603f01168101908282118183101715612514576125146124aa565b8160405283815286602085880101111561252d57600080fd5b836020870160208301376000602085830101528094505050505092915050565b60008060008060008060c0878903121561256657600080fd5b863567ffffffffffffffff8082111561257e57600080fd5b61258a8a838b016124c0565b975060208901359150808211156125a057600080fd5b6125ac8a838b016124c0565b965060408901359150808211156125c257600080fd5b6125ce8a838b016124c0565b955060608901359150808211156125e457600080fd5b6125f08a838b016124c0565b9450608089013591508082111561260657600080fd5b5061261389828a016124c0565b92505060a087013590509295509295509295565b60006020828403121561263957600080fd5b5035919050565b80356001600160a01b038116811461265757600080fd5b919050565b6000806040838503121561266f57600080fd5b8235915061267f60208401612640565b90509250929050565b60005b838110156126a357818101518382015260200161268b565b50506000910152565b600081518084526126c4816020860160208601612688565b601f01601f19169290920160200192915050565b60006101a08251845260208301516126fb60208601826001600160a01b03169052565b506040830151816040860152612713828601826126ac565b9150506060830151848203606086015261272d82826126ac565b9150506080830151848203608086015261274782826126ac565b91505060a083015184820360a086015261276182826126ac565b91505060c083015184820360c086015261277b82826126ac565b60e08581015190870152610100808601519087015261012080860151908701526101408086015190870152610160808601511515908701526101809485015115159490950193909352509192915050565b6000602080830181845280855180835260408601915060408160051b870101925083870160005b8281101561282157603f1988860301845261280f8583516126d8565b945092850192908501906001016127f3565b5092979650505050505050565b60006020808301818452808551808352604092508286019150828160051b87010184880160005b838110156128e657603f19898403018552815160e081518552888201518986015287820151818987015261288b828701826126ac565b9150506060808301518187015250608080830151818701525060a080830151868303828801526128bb83826126ac565b60c0948501516001600160a01b03169790940196909652505094870194925090860190600101612855565b509098975050505050505050565b600080600080600080600060e0888a03121561290f57600080fd5b87359650602088013567ffffffffffffffff8082111561292e57600080fd5b61293a8b838c016124c0565b975060408a013591508082111561295057600080fd5b61295c8b838c016124c0565b965060608a013591508082111561297257600080fd5b61297e8b838c016124c0565b955060808a013591508082111561299457600080fd5b6129a08b838c016124c0565b945060a08a01359150808211156129b657600080fd5b506129c38a828b016124c0565b92505060c0880135905092959891949750929550565b6000806000606084860312156129ee57600080fd5b83359250602084013567ffffffffffffffff80821115612a0d57600080fd5b612a19878388016124c0565b93506040860135915080821115612a2f57600080fd5b50612a3c868287016124c0565b9150509250925092565b600060208284031215612a5857600080fd5b61240482612640565b60208152600061240460208301846126d8565b600181811c90821680612a8857607f821691505b602082108103612aa857634e487b7160e01b600052602260045260246000fd5b50919050565b601f8211156107c757600081815260208120601f850160051c81016020861015612ad55750805b601f850160051c820191505b81811015611c0c57828155600101612ae1565b815167ffffffffffffffff811115612b0e57612b0e6124aa565b612b2281612b1c8454612a74565b84612aae565b602080601f831160018114612b575760008415612b3f5750858301515b600019600386901b1c1916600185901b178555611c0c565b600085815260208120601f198616915b82811015612b8657888601518255948401946001909101908401612b67565b5085821015612ba45787850151600019600388901b60f8161c191681555b5050505050600190811b01905550565b634e487b7160e01b600052601160045260246000fd5b600060018201612bdc57612bdc612bb4565b5060010190565b634e487b7160e01b600052603260045260246000fd5b60208082526011908201527010da185c9a5d1e48139bdd08119bdd5b99607a1b604082015260600190565b8082018082111561045d5761045d612bb4565b808202811582820484141761045d5761045d612bb4565b600082612c6b57634e487b7160e01b600052601260045260246000fd5b500490565b8181038181111561045d5761045d612bb4565b7f416363657373436f6e74726f6c3a206163636f756e7420000000000000000000815260008351612cbb816017850160208801612688565b7001034b99036b4b9b9b4b733903937b6329607d1b6017918401918201528351612cec816028840160208801612688565b01602801949350505050565b60208152600061240460208301846126ac565b600081612d1a57612d1a612bb4565b50600019019056fea2646970667358221220ca22488c66c65172160ed79ffaf3ac0a7ab36f162e655447ef8e32b33afcd38c64736f6c63430008110033",
  "linkReferences": {},
  "deployedLinkReferences": {}
}